:020000040800F2
:10000000B8150020450100085111000853110008DF
:10001000571100085B1100085F1100080000000084
:100020000000000000000000000000006311000854
:100030006511000800000000671100086911000840
:100040005F0100085F0100085F0100085F01000810
:100050005F0100085F0100085F0100085F01000800
:100060005F0100085F0100085F0100085F010008F0
:100070005F0100085F0100085F0100085F010008E0
:100080005F0100085F0100085F0100085F010008D0
:10009000711100085F0100085F0100085F0100089E
:1000A0005F0100085F0100085F0100085F010008B0
:1000B000BB1100085F0100085F0100085F01000834
:1000C0005F0100085F0100085F0100085F01000890
:1000D0005F0100085F0100085F0100085F01000880
:1000E0005F0100085F0100085F0100085F01000870
:1000F0005F0100085F0100085F0100085F01000860
:100100005F0100085F0100085F0100085F0100084F
:100110005F0100085F0100085F0100085F0100083F
:100120005F0100085F0100085F0100085F0100082F
:10013000DFF80CD003F072FB0048004769010008AB
:10014000B81500200648804706480047FEE7FEE74E
:10015000FEE7FEE7FEE7FEE7FEE7FEE7FEE7FEE777
:10016000B73600083101000800F096FE00F0EEFE00
:1001700000F00AF900F037F900F005FE5BA003F08B
:10018000A9FB4FF4FA7000F0B7F95E48027800213D
:100190005D4800F0A9FA5D48027800215C4800F053
:1001A000A3FA5CA003F096FB4FF4FA7000F0A4F9F8
:1001B0000321554800F030FC0321554800F02CFC89
:1001C0004FF4FA7000F098F959A003F083FB4E4801
:1001D00000F036FD4E4800F033FD58A003F07AFBE6
:1001E0005BA003F077FB41F2883000F085F9002333
:1001F0001A4646F28601444800F084F94FF47A63C7
:10020000002246F28301404800F07CF94FF47A6303
:10021000002246F284013C4800F074F932230022A7
:1002200046F2FF01384800F06DF90F23002246F234
:100230004001354800F066F900231A4646F286016F
:10024000334800F05FF94FF47A63002246F28301ED
:100250002F4800F057F94FF47A63002246F28401E8
:100260002B4800F04FF93223002246F2FF012848C4
:1002700000F048F90F23002246F24001244800F024
:1002800041F931E0002246F241011F4800F048FAEE
:100290000646022000F030F9002246F26B011A48AF
:1002A00000F03EFA0546022000F026F92A463146C3
:1002B0002CA003F00FFB002246F26101124800F06F
:1002C0002FFA0546002246F2FF010F4800F028FAF7
:1002D0000446022000F010F92246294626A003F029
:1002E000F9FA0A2000F008F9CCE70000626F6172A9
:1002F0006420696E697420636F6D706C657465212C
:100300000D0A0000040D0020640D0020050D0020E2
:100310008C0D00200D0A696E697469616C2045506E
:100320004F5320646F6E65210D0A0D0A0000000016
:100330000D0A7374617475730D0A00000D0A656E01
:1003400061626C652045504F530D0A0D0A00000094
:100350000D0A45504F53207365742030200D0A0D4F
:100360000A0000007374617475733A307825580977
:1003700025640D0A000000006D6F64653A2564096C
:1003800025640D0A0000000008B54FF4A06000F0DD
:100390002BFF1C208DF8000002208DF801008DF845
:1003A000020001208DF80300684600F022FF08BD1E
:1003B0000EB50121022001F0A6FF42F21070ADF847
:1003C000040041F61F40ADF800000020ADF8060023
:1003D000ADF802006946314802F0C0F801212F480B
:1003E00002F018FC0EBD0EB50121084601F08BFF8E
:1003F0004FF4FA50ADF804004720ADF8000000209B
:10040000ADF80600ADF8020069464FF0804002F0FA
:10041000A5F80121880702F0FDFB0EBD10B50121F2
:10042000880702F0D1FE1E480068B0F5A17F07DD05
:100430001B480068A0F243101A4951F8200004E05C
:1004400019481749096850F8210018490860002226
:1004500046F26401164800F063F916490860134833
:100460000168134800F005FC10480168124800F0CC
:1004700000FC104802680A48016810A003F02AFA3C
:1004800007480068401C0649086040F2D7218842AE
:1004900002D100200249086010BD000000040040A5
:1004A00008000020B4060020A8010020040000205D
:1004B000640D00200C0000208C0D0020256409250F
:1004C000640D0A000FB410B5FEA0029903F002FA01
:1004D000FEA003F0FFF9002406E00DF11300015D1A
:1004E000FBA003F0F7F9641C082CF6DBFAA003F07C
:1004F000F1F910BC5DF814FB10B50446204600F07D
:10050000D8FC10BD2DE9F84304460D461646984622
:1005100009F10109617D33462A46F0A003F0DAF9BA
:1005200009E00220FFF7E8FF0021F04801F0C9F9D7
:10053000EFA003F0CFF90021EC4801F0CDF900283D
:10054000EFDCEC480068401CEA490860062874DAD1
:1005500008460168E8A003F0BDF9607D00F5C061C0
:10056000E08861F38C00E080222000EB052000EBA6
:100570000661A160C4F80C80082121740021617417
:10058000A174E388C3F38A00D4E9021200F005FCE9
:10059000052702E00220FFF7AFFF0021D34801F05A
:1005A0009BF9B0F1000903D1381EA7F10107F1DC76
:1005B000781C50B94346324629462046FFF7A2FF31
:1005C000D0A003F087F9BDE8F883D14A0021C748DD
:1005D00001F0FFF8CE4800690090CD480FC8FFF742
:1005E00071FF0021C14801F06CF9C9480168607DC4
:1005F00000F5B060814229D1C548C07A602802D098
:1006000080281BD112E0C248017B407B01EB002017
:10061000A84204D1BE48807BB04200D115E04346D9
:10062000324629462046FFF76DFF0EE0434632462C
:1006300029462046FFF766FF07E00EE043463246B4
:1006400029462046FFF75EFF00BF16E043463246CC
:1006500029462046FFF756FF0FE0617D33462A46C4
:10066000ACA003F037F9AA4800690090A8480FC869
:10067000FFF728FF98A003F02DF900209D4908609E
:1006800000BFA0E710B504468023002246F24001D7
:100690002046FFF737FF4FF4FA63002246F2650168
:1006A0002046FFF72FFF41F28833002246F27F01F8
:1006B0002046FFF727FF002246F283012046E36928
:1006C000FFF720FF002246F284012046236AFFF74D
:1006D00019FF964B002246F285012046FFF712FFD4
:1006E00093A003F0F7F810BD70B504460E4615460A
:1006F0000020207520606575012020750020A07500
:100700001F20A0614CF25030E0612062002084F88C
:1007100024002046FFF7B6FF8AA003F0DBF870BD87
:100720002DE9F84304460E46174609F101097148C0
:100730000068401C6F490860062870DA607D00F58B
:10074000C060E18860F38C01E180402000EB06206E
:1007500000EB0761A1600021E16008212174002104
:100760006174A174E388C3F38A00D4E9021200F033
:1007700014FB4FF0050802E00220FFF7BDFE002148
:100780005A4801F0A9F8B0F1000904D1B8F100000D
:10079000A8F10108F0DC08F1010040B93A46314601
:1007A0002046FFF7BDFF05462846BDE8F883584AB6
:1007B00000214E4801F00DF800214C4801F081F86D
:1007C00053480168607D00F5B060814237D15048E0
:1007D000C07A432808D0472805D04B2802D04F289C
:1007E00025D100BF00BF00BF4948017B407B01EB22
:1007F0000020B04214D14648807BB84210D1444812
:10080000807C01064248407C01EB00414048007C6E
:1008100001EB00213E48C07B0D182846C5E717E0D4
:100820003A4631462046FFF77BFF054606E03A464A
:1008300031462046FFF774FF054600BF08E03A4600
:1008400031462046FFF76CFF054642A003F042F810
:100850002848006806280FD13A46314640A003F0E8
:1008600039F82B480069009029480FC8FFF72AFE85
:1008700000202049086098E700201E4908602846AB
:1008800093E710B5044640F2012301224FF4A05132
:100890002046FFF737FE012302224FF4A0512046E5
:1008A000FFF730FE00231A464FF4B0512046FFF701
:1008B00029FE304B01224FF4B0512046FFF722FEB3
:1008C000012359E0307825780900000030780000D5
:1008D00025303258200000000D0A000053656E6478
:1008E0002025642D25582D25580D0A000064004050
:1008F000490D0A00080D00206E657374203D202507
:10090000640D0A004E6F2052656365697665640068
:10091000500D00200D0A77726F6E672D2D25642D06
:1009200025582D2558200D0A00000000A086010042
:1009300045706F735F506172616D496E6974200D0F
:100940000A00000045706F735F53496E69740D0AA9
:100950000000000077726F6E6720494400000000BD
:1009600077726F6E6720726561642D2D25582D2575
:10097000580D0A0020007A6000224FF4B051204642
:10098000FFF7C0FD10BD2DE9F04105460C46264697
:1009900000273A463146284600F0FFF9BDE8F081CD
:1009A00070B504460D460220FFF7A6FD0021E08841
:1009B00061F38C00E080802000EB0521A160002124
:1009C000E16008212174E388C3F38A00D4E90212AC
:1009D00000F0E3F90220FFF78FFD70BD70B504460B
:1009E0000D460220FFF788FD0021E08861F38C00AE
:1009F000E080012000EB0521A1600021E1600821D9
:100A00002174E388C3F38A00D4E9021200F0C5F927
:100A10000220FFF771FD70BD70B505460C46AC7540
:100A20002346002246F260012846FFF76BFD072CA3
:100A30007ED006DC012C6BD0032C7AD0062C79D129
:100A4000C1E0082C04D0FD2C3BD0FE2CF7D127E0D0
:100A500040F6B833002246F284012846FFF752FDE3
:100A600041F28833002246F285012846FFF74AFD0D
:100A700000231A4646F265012846FFF743FD4FF072
:100A80000043012246F27D012846FFF73BFD6FF04F
:100A90000043022246F27D012846FFF733FDCDE0F8
:100AA0004FF47A73002246F2C5012846FFF72AFD6B
:100AB00041F28833002246F27F012846FFF722FDEB
:100AC000BCE04FF4FA63012243F201012846FFF72C
:100AD00019FD4FF47A63022243F201012846FFF721
:100AE00011FD0123032243F201012846FFF70AFD0D
:100AF00046F2A813042243F201012846FFF702FD43
:100B00000123052243F201012846FFF7FBFC95E093
:100B100000231A4646F268012846FFF7F3FC4FF01F
:100B20000043012246F27D012846FFF7EBFC02E07C
:100B300051E01FE07EE06FF00043022246F27D01AB
:100B40002846FFF7DFFC41F28833002246F27F019E
:100B50002846FFF7D7FC4C4B002246F28501284679
:100B6000FFF7D0FC6423002246F27F012846FFF7FE
:100B7000C9FC63E04FF00043012246F27D012846A4
:100B8000FFF7C0FC6FF00043022246F27D012846C9
:100B9000FFF7B8FC40F6B833002246F27F01284642
:100BA000FFF7B0FC4CF25033002246F28501284694
:100BB000FFF7A8FC41F2883300224FF4C1412846D8
:100BC000FFF7A0FC3AE00123002246F28601284606
:100BD000FFF798FC32E04FF0FF33002246F2C001ED
:100BE0002846FFF78FFC01231A4646F2C201284629
:100BF000FFF788FC6FF00203022246F2C20128468A
:100C0000FFF780FC4FF00043012246F27D012846A9
:100C1000FFF778FC6FF00043022246F27D01284680
:100C2000FFF770FC00231A4646F268012846FFF7DA
:100C300069FC03E015A002F04DFE00BF00BF70BDCF
:100C400010B504460623002246F240012046FFF775
:100C500059FC4FF4FA70FFF74FFC0F23002246F2C5
:100C600040012046FFF74EFC4FF4FA70FFF744FCBA
:100C700010BD70B505460C462346002246F27A01A7
:100C80002846FFF73FFC70BDA08601000D0A657283
:100C9000726F72206D6F64650D0A000008B5012146
:100CA000092001F023FB0121480601F02CFB012162
:100CB0004FF4EA1001F02FF94FF48070ADF8000006
:100CC00048208DF8030003208DF8020069464D4846
:100CD00001F050F84FF40070ADF8000018208DF8C6
:100CE000030003208DF802006946464801F042F8EF
:100CF00008BD70470EB5444800F0E4FA684600F0BD
:100D000005FC00208DF8060001208DF807008DF805
:100D1000080000208DF809008DF80A008DF80B00FE
:100D20008DF8020001208DF8030004208DF80400E6
:100D300002208DF805000420ADF800006946324815
:100D400000F0D9FA0EBD1FB500208DF80A00012071
:100D50008DF80B0000208DF80C004BF22000ADF850
:100D600000004BF24000ADF802000020ADF8040096
:100D7000ADF80600ADF8080001208DF80D006846BA
:100D800000F043FB1FBD10B5FFF788FFFFF7B1FF71
:100D9000FFF7B0FFFFF7D7FF10BD2DE9F04707467B
:100DA0000D4690461948076000201849087248729D
:100DB00008208872A946002404E014480B30055529
:100DC0002D0A641C042CF8DBC146042406E00F48FD
:100DD0000B3000F804904FEA1929641C082CF6DB4C
:100DE0000A49094800F000FC0646322400BF31469B
:100DF000054800F091FC012802D0601E041EF6DCBC
:100E0000BDE8F087000C0140006400403C0D00206C
:100E100010B5002807DA0A07140E474A00F00F033E
:100E20001B1FD45403E00A07130E444A135410BD89
:100E300010B50446B4F1807F01D3012010BD24F029
:100E40007F40401E4FF0E02148610F214FF0FF30FE
:100E5000FFF7DEFF00204FF0E021886107200861E6
:100E60000020EBE710B500BF354800684FF47A71F9
:100E7000B0FBF1F42046FFF7DBFF0028F4D100219E
:100E8000401EFFF7C5FF4FF0E020006920F0010091
:100E90004FF0E021086110BD10B5FFF7E3FF10BD72
:100EA00001B502E00098401E009000980028F9D19A
:100EB00008BD01B52349009808604FF0E0200069A3
:100EC00040F001004FF0E021086100BF1D480068BC
:100ED0000028FBD108BD01B51A49009808604FF001
:100EE000E020006940F001004FF0E021086100BF00
:100EF000144800680028FBD108BD10B500BF104899
:100F000000681149B0FBF1F42046FFF791FF00287B
:100F1000F5D14FF0E020006920F001004FF0E02112
:100F2000086110BD0748006820B106480068401EEF
:100F3000044908607047000018ED00E000E400E09C
:100F4000240D00200C0D002040420F0000B585B09C
:100F5000012144F2040001F0C9F94FF40070ADF82A
:100F6000100018208DF8130003208DF8120004A93A
:100F7000754800F0FFFE4FF48060ADF810000420CB
:100F80008DF8130004A9704800F0F4FE4FF4E1302E
:100F900000900020ADF80400ADF80600ADF80800A0
:100FA000ADF80C000C20ADF80A006946674802F065
:100FB00052F90121654802F0DAF905B000BD70B5BB
:100FC00004460D46E1B2614802F03EFA00BF5F48B8
:100FD000008800F080000028F9D0204670BDF0B5F0
:100FE00003460D461646002729460A2E03D0002048
:100FF00008702846F0BD33B9302001F8010B0020FD
:1010000008702846F6E7002B03DA2D2001F8010BC3
:101010005B4242F210720DE093FBF2F404B937B177
:1010200004F1300001F8010B04FB123301270A2000
:1010300092FBF0F2002AEFDC002008702846D9E786
:101040000FB470B586B006460CA8019073E00B98FB
:1010500000785C281CD10B98401C0B9000786E28FF
:1010600009D072280FD10D21304602F0EDF90B980E
:10107000401C0B900BE00A21304602F0E5F90B987A
:10108000401C0B9003E00B98401C0B9000BF4BE002
:101090000B980078252840D10B98401C0B900078C5
:1010A000642818D0732833D1019810C801900BE040
:1010B0002178304602F0C8F900BF4021304602F0E6
:1010C00031FA0028F9D0641C20780028F0D10B9860
:1010D000401C0B9020E0019820C801900A2202A930
:1010E0002846FFF77CFF02AC0BE02178304602F087
:1010F000ABF900BF4021304602F014FA0028F9D0C5
:10110000641C20780028F0D10B98401C0B9003E061
:101110000B98401C0B9000BF06E00B9810F8011BC9
:101120000B90304602F090F900BF4021304602F0AB
:10113000F9F90028F9D00B980078002887D106B07B
:1011400070BC5DF814FB000000080140003801404D
:10115000704700BFFEE700BFFEE700BFFEE700BF2D
:10116000FEE770477047704710B5FFF7DBFE10BD14
:1011700010B50024134A0021134800F02AFB002078
:10118000124908600F48016811A002F0A3FB12A0E9
:1011900002F0A0FB00BF06E00A480B30015D0FA083
:1011A00002F098FB641C082CF6DB0EA002F092FB08
:1011B0000021054800F085FB10BD10B5FFF72EF9A2
:1011C00010BD0000500D0020006400400000002011
:1011D000307825780900000030780000253032583A
:1011E000200000000D0A000031490143314A11601E
:1011F000704770B5002100230F22C47804B32D4C32
:10120000246804F4E064C4F5E064210AC1F1040335
:10121000CA40447804FA03F1847814402143090158
:10122000254C0678A155047804F01F050124AC4034
:1012300005786D11AD0005F1E025C5F8004109E024
:10124000047804F01F050124AC401C4D067876118B
:1012500045F8264070BD1A4A0A400243154B1B1F31
:101260001A60704739B1134A121D12680243114BBC
:101270001B1D1A6006E00F4A121D126882430D4BB7
:101280001B1D1A607047042808D14FF0E02109693E
:1012900041F004014FF0E022116107E04FF0E0213E
:1012A000096921F004014FF0E0221161704700004C
:1012B0000000FA050CED00E000E400E080E100E051
:1012C00080FFFF1F10B50446FE48844209D101216A
:1012D000480601F032F800214FF0007001F02DF8BF
:1012E00008E00121880601F028F800214FF0806015
:1012F00001F023F810BD30B5024600200023146829
:1013000024F002041460146844F00104146000E046
:101310005B1C546804F001041CB94FF6FF74A3422F
:10132000F6D1546804F001040CB900206CE08C790B
:10133000012C04D1146844F08004146003E01468A4
:1013400024F080041460CC79012C04D1146844F09A
:101350004004146003E0146824F0400414600C7A24
:10136000012C04D1146844F02004146003E01468D4
:1013700024F0200414604C7A012C04D1146844F049
:101380001004146003E0146824F0100414608C7AD4
:10139000012C04D1146844F00804146003E01468BC
:1013A00024F008041460CC7A012C04D1146844F0B1
:1013B0000404146003E0146824F0040414608C78BE
:1013C000A407CD7844EA05640D7944EA05444D79D3
:1013D00044EA05540D886D1E2C43D461146824F032
:1013E00001041460002300E05B1C546804F0010455
:1013F0001CB14FF6FF74A342F6D1546804F0010407
:101400000CB1002000E0012030BD10B50021837A2E
:10141000012202FA03F1AC4A126842F00102AA4B1F
:101420001A60A94A1C3212688A43A74B1C331A60FF
:10143000027BCAB9A44A0C3212688A43A24B0C330D
:101440001A604288C38842EA03439F4A4032847A42
:1014500042F834300288838842EA03439A4A403291
:10146000847A02EBC4025360027B012A19D1964AA6
:101470000C3212680A43944B0C331A60428803887A
:1014800042EA0343904A4032847A42F83430C288B8
:10149000838842EA03438C4A4032847A02EBC402D6
:1014A0005360C27A3AB9884A121D12688A43864B41
:1014B0001B1D1A6006E0844A121D12680A43824B03
:1014C0001B1D1A60028932B97F4A143212688A439E
:1014D0007D4B14331A600289012A06D17A4A1432EC
:1014E00012680A43784B14331A60427B012A06D1F2
:1014F000754A1C3212680A43734B1C331A60724AD5
:10150000126822F00102704B1A6010BD0021817137
:10151000C171017241728172C1728170C170032107
:1015200001710221417101210180704766490968FA
:1015300041F00101644A11601146096843F60E72D8
:101540009143614A11601146096841EA0021116026
:101550001146096821F001011160704721B102684C
:1015600042F48032026003E0026822F480320260BA
:101570007047E1B1026842F0800202604FF4C2722B
:10158000125842F480734FF4C27213504FF4CA726F
:10159000125842F480734FF4CA7213504FF4D2724F
:1015A000125842F480734FF4D27213501BE0026859
:1015B00022F0800202604FF4C272125822F480734B
:1015C0004FF4C27213504FF4CA72125822F480734F
:1015D0004FF4CA7213504FF4D272125822F480732F
:1015E0004FF4D2721350704710B502460020936832
:1015F00003F08063B3F1806F00D110E0936803F0D3
:101600000063B3F1006F01D1012008E0936803F09B
:101610008053B3F1805F01D1022000E00420042850
:1016200079D002F5C07303EB00131B6803F00104CB
:1016300002F5C07303EB00131C600B7A7BB94B7A85
:101640000C8843EA445302F5C07404EB0014246888
:10165000234302F5C07404EB0014236010E00B7AFE
:101660004C6843EAC4034C7A234302F5C07404EB8C
:1016700000142468234302F5C07404EB00142360B3
:101680008B7A03F00F038B7202F5C07303EB001328
:101690005B6823F00F0402F5C07303EB00135C607A
:1016A00002F5C07303EB00135B688C7A234302F5E9
:1016B000C07404EB001463608B7B1C064B7B44EA14
:1016C000034403E000640040006600400B7B44EAF2
:1016D0000323CC7A234302F5C07404EB0014A36007
:1016E0008B7C1C064B7C44EA03440B7C44EA0323BA
:1016F000CC7B234302F5C07404EB0014E36002F5D5
:10170000C07303EB00131B6843F0010402F5C073C0
:1017100003EB00131C6010BD10B50246002321B17D
:10172000012907D002290FD109E09068F94C00EA9D
:1017300004030BE09068F84C00EA040306E09068AC
:10174000F64C00EA040301E0002300BF00BFF44CA4
:10175000181BA34216D007DC83B16FF080601844D9
:1017600070B1022818D111E0B0F5007F10D0ED4C17
:10177000204448B1B0F5003F0ED10BE002230DE04C
:1017800000230BE0002309E0002307E0012305E02C
:10179000012303E0012301E0002300BF00BFD8B212
:1017A00010BD21B1012907D002290FD109E08268BB
:1017B00042F0800282600AE0826842F40042826065
:1017C00005E0826842F40002826000E000BF00BFD2
:1017D000704710B500F5D87303EB01131B6803F0D5
:1017E00004031372137A53B900F5D87303EB011392
:1017F0001B6840F2FF7404EA5353136009E000F5DC
:10180000D87303EB01131B686FF0604404EAD30341
:10181000536000F5D87303EB01131B6803F0020358
:10182000537200F5D87303EB01135B6803F00F03E9
:10183000937200F5D87303EB01135B681B0AD37432
:1018400000F5D87303EB01139B68D37200F5D873CE
:1018500003EB01139B681C0A147300F5D87303EBA8
:1018600001139B681C0C547300F5D87303EB011330
:101870009B681B0E937300F5D87303EB0113DB68B1
:10188000D37300F5D87303EB0113DB681C0A1474DF
:1018900000F5D87303EB0113DB681C0C547400F5DE
:1018A000D87303EB0113DB681B0E937421B9C36873
:1018B00043F02003C36003E0036943F020030361A6
:1018C00010BD21B9C26842F02002C26003E0026983
:1018D00042F02002026170470246002019B9D36825
:1018E00003F0030006E0012903D1136903F00300AC
:1018F00000E00020704710B502460B4600204FF66E
:10190000FF71BBB9146824F0020444F001041460B0
:1019100000E0491E546804F00304012C01D00029A2
:10192000F7D1546804F00304012C01D0002032E008
:10193000012030E0012B13D1146824F0030414605B
:1019400000E0491E546804F003040CB10029F8D1EA
:10195000546804F003040CB100201CE001201AE0DC
:10196000022B17D1146824F0010444F0020414601F
:1019700000E0491E546804F00304022C01D0002941
:10198000F7D1546804F00304022C01D0002002E0D7
:10199000012000E0002010BD014600200A6822F06E
:1019A000010242F002020A604A6802F00302022ABF
:1019B00000D10120704701464FF6FF7200200B68EE
:1019C00023F002030B6000E0521E4B6803F0020399
:1019D000022B01D1002AF7D14B6803F00203022B3E
:1019E00000D001207047014600208A6902F0700093
:1019F0007047014600208A69100E7047014600209A
:101A00008A69C2F3074070471AB143690B434361C7
:101A100002E043698B434361704710B502460020E2
:101A200001F4700343B19369C1F3130423400BB174
:101A300001202DE000202BE001F0807343B15368BA
:101A4000C1F3130423400BB1012021E000201FE06B
:101A500001F0006343B19368C1F3130423400BB159
:101A6000012015E0002013E001F0007343B1D368BA
:101A7000C1F3130423400BB1012009E0002007E06B
:101A80001369C1F3130423400BB1012000E00020CF
:101A900010BD0022244B994202D10023836111E042
:101AA000C1F3130201F000730BB1C2600AE001F050
:101AB00080630BB1026105E001F000630BB182604D
:101AC00000E0426070470246002002EA01030BB1C9
:101AD000012000E00020704770B504460D46002646
:101AE00060692840002872D0B5F5807F69D01DDC80
:101AF000082D42D006DC012D2DD0022D31D0042D31
:101B00007FD134E0102D3ED0202D42D0402D78D111
:101B100045E000000300000400030008000003107B
:101B2000000100080001FFF77000F030B5F5004F2C
:101B300061D009DCB5F5007F4AD0B5F5806F4DD096
:101B4000B5F5006F5DD150E0B5F5803F2DD0B5F50E
:101B5000003F56D12FE0A0685549FFF7B4FF064675
:101B600051E0E0680321FFF7AEFF06464BE0E06876
:101B70000821FFF7A8FF064645E0E0681021FFF7BF
:101B8000A2FF06463FE020690321FFF79CFF0646BF
:101B900039E020690821FFF796FF064633E0206907
:101BA0001021FFF790FF06462DE060680821FFF73F
:101BB0008AFF064627E060681021FFF784FF06468B
:101BC00021E0A0690121FFF77EFF06461BE01BE034
:101BD000A0690221FFF777FF064614E0A0690421FF
:101BE000FFF771FF06460EE00BE0A0697021FFF7DA
:101BF0006AFF064607E060680421FFF764FF0646B7
:101C000001E0002600BF00E00026304670BDB1F5BF
:101C1000007F3AD00FDC202928D006DC01291CD017
:101C200004291DD0082940D11DE0402921D0B1F55B
:101C3000807F3AD126E0B1F5004F31D006DCB1F516
:101C4000806F25D0B1F5006F2FD124E0B1F5803F32
:101C500012D0B1F5003F28D111E0154A826025E08D
:101C60000822C26022E01022C2601FE00822026146
:101C70001CE01022026119E00822426016E01022E6
:101C8000426013E00422426010E0042242600DE052
:101C9000042242600AE0002282610422426005E0E0
:101CA000002282610422426000E000BF00BF704752
:101CB0000101010010B50446CC48844208D101213D
:101CC000042000F02DFB0021042000F029FB46E059
:101CD000C748844208D10121082000F021FB0021DF
:101CE000082000F01DFB3AE0C248844208D10121DF
:101CF000102000F015FB0021102000F011FB2EE059
:101D0000BD48844208D10121202000F009FB0021B8
:101D1000202000F005FB22E0B848844208D10121D0
:101D2000402000F0FDFA0021402000F0F9FA16E012
:101D3000B348844208D10121802000F0F1FA00214B
:101D4000802000F0EDFA0AE0AE48844207D101217C
:101D5000801500F0E5FA0021A01500F0E1FA10BDB1
:101D600010B50121084600F0DBFA0021012000F047
:101D7000D7FA10BD2DE9F0410246002500260020CB
:101D800000230024002791F803C00CF00F0591F800
:101D900003C00CF0100CBCF1000F03D091F802C08E
:101DA0004CEA050591F800C0BCF1000F31D0146871
:101DB00000202BE04FF0010C0CFA00F3B1F800C04A
:101DC0000CEA03069E4220D183004FF00F0C0CFA60
:101DD00003F7BC4305FA03FC4CEA040491F803C082
:101DE000BCF1280F06D14FF0010C0CFA00FCC2F830
:101DF00014C00AE091F803C0BCF1480F05D14FF0C0
:101E0000010C0CFA00FCC2F810C0401C0828D1D309
:101E10001460B1F800C0BCF1FF0F34DD546800203D
:101E20002EE000F1080C4FF0010808FA0CF3B1F8AD
:101E300000C00CEA03069E4221D183004FF00F0C34
:101E40000CFA03F7BC4305FA03FC4CEA040491F8CE
:101E500003C0BCF1280F05D100F1080C08FA0CF8FA
:101E6000C2F8148091F803C0BCF1480F07D100F10B
:101E7000080C4FF0010808FA0CF8C2F81080401C5A
:101E80000828CED35460BDE8F0814FF6FF71018081
:101E9000022181700421C1707047024600209368BE
:101EA0000B400BB1012000E000207047014688681C
:101EB00080B2704702460020D3680B400BB101206E
:101EC00000E0002070470146C86880B27047016199
:101ED0007047416170470AB1016100E0416170479C
:101EE000C16070474FF480320A4382618161826130
:101EF00082698269704702460020434B18684FF69A
:101F00008073184040EA021008433F4B1860704746
:101F10003E49C8617047F0B50A46002300240021FD
:101F2000002500F00046B6F1004F02D1364EF169AF
:101F300001E0354E7168C0F3034583B200F44016EA
:101F4000B6F5401F08D121F070612F4E766826F05B
:101F500070662D4F7E6012E000F48016B6F5801F8B
:101F600006D1032606FA05F4A14341F0706106E0AC
:101F7000460D360103FA06F6B14341F0706122B115
:101F8000460D360103FA06F6314300F00046B6F17D
:101F9000004F02D11C4EF16101E01B4E7160F0BD9B
:101FA00030B500228B071C0F0F2303FA04F2164BE7
:101FB00008338C1053F824309343134C08348D109D
:101FC00044F8253023468C1053F824308C07240F16
:101FD00000FA04F423430C4C08348D1044F82530E7
:101FE00030BD0A49DC31086070470000000801403C
:101FF000000C014000100140001401400018014095
:10200000001C01400020014000000140000020426F
:10201000DF48006840F00100DD490860084640687C
:10202000DC490840DA49486008460068DA49084057
:10203000D74908600846006820F4802008600846F8
:10204000406820F4FE0048604FF41F00886070472D
:10205000CF49096821F48031CD4A116011460968E1
:1020600021F480211160B0F5803F03D0B0F5802FBE
:102070000ED106E0C649096841F48031C44A1160B6
:1020800007E0C349096841F4A021C14A116000E09A
:1020900000BF00BF704710B501460022002300209A
:1020A0004A11012A02D1BA4C236806E0022A02D161
:1020B000B74C236A01E0B64C636A01F01F020124A9
:1020C00094401C400CB1012000E0002010BD38B548
:1020D000002000900024002500BF3120FFF7DBFF27
:1020E00005460098401C00900098B0F5A06F01D004
:1020F000002DF2D03120FFF7CEFF08B1012400E01F
:102100000024204638BD01460020A14A106820F076
:10211000F80040EAC10010607047A04908607047AD
:10212000024600209A4B586820F47C1042EA0103D2
:102130001843974B586070479849086670470146A6
:102140000020934A506820F0030008435060704715
:102150008F48406800F00C007047014600208C4A10
:10216000506820F0F000084350607047014600209E
:10217000874A506820F4E060084350607047014689
:102180000020834A506820F4605040EAC10050604B
:10219000704729B17E4A527A02437D4B5A7204E05D
:1021A0007B4A527A82437A4B5A7270477B49D831C4
:1021B0000860704701460020754A506820F440408E
:1021C0000843506070470021714A20321170704AF4
:1021D00082F82010012802D004280AD104E001214D
:1021E0006B4A2032117005E00521694A20321170D6
:1021F00000E000BF00BF704769490860704764494C
:10220000096A0143624A11627047654944390860AE
:10221000704730B500210022002400235C4D6D681A
:1022200005F00C0121B1042905D0082923D105E0CE
:102230005C4D056022E05B4D05601FE0544D6D680C
:1022400005F47012524D6D6805F48034022505EBDB
:1022500092421CB9544D554305600BE04C4D6D68DE
:1022600005F400351DB1504D5543056002E04D4D5C
:102270005543056002E04B4D056000BF00BF444D73
:102280006D6805F0F0010909484D6B5C0568DD409B
:1022900045603F4D6D6805F4E061090A434D6B5C94
:1022A0004568DD4085603A4D6D6805F46051C90AA6
:1022B0003E4D6B5C4568DD40C560354D6D6805F48D
:1022C0004041890B3A4D6B5CC568B5FBF3F5056180
:1022D00030BD29B12E4A526902432D4B5A6104E0A8
:1022E0002B4A526982432A4B5A61704729B1284AC6
:1022F00092690243264B9A6104E0254A926982431F
:10230000234B9A61704729B1214AD2690243204B7D
:10231000DA6104E01E4AD26982431D4BDA617047DC
:1023200029B11B4AD2680243194BDA6004E0184A0B
:10233000D2688243164BDA60704729B1144A126999
:102340000243134B1A6104E0114A12698243104B95
:102350001A61704712494039086070470F49C864D4
:1023600070470B49C87170470948406A40F0807057
:1023700007494862704701460020054A92680A40B2
:102380000AB1012000E000207047014988727047BF
:10239000001002400000FFF8FFFFF6FE000042427E
:1023A0008004424200127A0000093D00100D002016
:1023B000200D002010B50446FE48844208D10121BA
:1023C000C014FFF7ADFF0021E014FFF7A9FFC4E040
:1023D000B4F1804F08D101210846FFF7AEFF00217C
:1023E0000120FFF7AAFFB8E0F348844208D1012199
:1023F0000220FFF7A2FF00210220FFF79EFFACE0C2
:10240000EE48844208D101210420FFF796FF002105
:102410000420FFF792FFA0E0E948844208D101219F
:102420000820FFF78AFF00210820FFF786FF94E0CD
:10243000E448844208D101211020FFF77EFF0021EB
:102440001020FFF77AFF88E0DF48844208D101219D
:102450002020FFF772FF00212020FFF76EFF7CE0B5
:10246000DA48844208D101214014FFF759FF0021C6
:102470006014FFF755FF70E0D548844209D101216F
:10248000C804FFF74DFF00214FF40020FFF748FF7D
:1024900063E0D048844209D101210805FFF740FFDD
:1024A00000214FF48010FFF73BFF56E0CA488442FA
:1024B00009D101214805FFF733FF00214FF4001037
:1024C000FFF72EFF49E0C548844208D10121402092
:1024D000FFF733FF00214020FFF72FFF3DE0C0480A
:1024E000844208D101218020FFF727FF00218020AE
:1024F000FFF723FF31E0BB48844208D1012180155A
:10250000FFF71BFF0021A015FFF717FF25E0B648D6
:10251000844209D101210804FFF702FF00214FF492
:102520008030FFF7FDFE18E0B048844209D1012158
:102530004804FFF7F5FE00214FF40030FFF7F0FEEE
:102540000BE0AB48844208D101218804FFF7E8FE84
:1025500000214FF48020FFF7E3FE10BD0022028827
:10256000944B98420ED0994B98420BD0B0F1804FCB
:1025700008D0914B984205D0904B984202D0904B96
:10258000984204D14FF68F731A404B881A438D4BF3
:10259000984207D08C4B984204D04FF6FF431A4024
:1025A000CB881A4302808B8883850B880385814BF7
:1025B00098420BD0854B984208D08B4B984205D05F
:1025C0008A4B984202D08A4B984201D10B7A0386FB
:1025D00001238382704770B5002400220023058CFC
:1025E0004FF6FE7635400584028C8388048B4FF6C7
:1025F0008F752C40B51E2C400D882C43751E2A402B
:102600000D892A434D882A436A4DA8420BD06F4D4D
:10261000A84208D0744DA84205D0744DA84202D0FB
:10262000734DA84213D14FF6F7752A404D892A43BE
:102630004FF6FB752A408D882A434FF6FF652B40E5
:102640004FF6FF552B408D892B43CD892B4383803B
:102650000483CD888586028470BD70B50024002275
:102660000023058C4FF6EF7635400584028C838875
:10267000048B48F6FF752C404FF6FF452C400D8823
:102680004FF6FF7606EA05252C434FF6DF752A4004
:102690000D8906EA05152A434D8806EA05152A43E1
:1026A000444DA84202D0494DA8421DD14FF67F7536
:1026B0002A404D894FF6FF7606EA05152A434FF664
:1026C000BF752A408D8806EA05152A434FF6FF3567
:1026D0002B404FF2FF752B408D8906EA85052B4371
:1026E000CD8906EA85052B4383800483CD88058741
:1026F000028470BD70B5002400220023058C4FF6C3
:10270000FF6635400584028C8388848B4FF68F7575
:102710002C404FF6FC752C400D882C434FF6FF558E
:102720002A400D894FF6FF7606EA05252A434D8893
:1027300006EA05252A431F4DA84202D0234DA84290
:102740001DD14FF2FF752A404D894FF6FF7606EAFC
:1027500005252A434FF6FF352A408D8806EA0525D0
:102760002A434EF6FF752B404DF6FF752B408D89A1
:1027700006EA05152B43CD8906EA05152B43838010
:102780008483CD888587028470BD70B500220023C4
:102790000024058C4EF6FF7635400584038C848832
:1027A000828B48F6FF752A404FF6FF452A400D8878
:1027B00020E00000002C0140000400400008004020
:1027C000000C0040001000400014004000340140A4
:1027D000004C0140005001400054014000180040EE
:1027E000001C004000200040004001400044014027
:1027F000004801404FF6FF7606EA05252A434DF6CC
:10280000FF752B400D8906EA05352B434D8806EAF6
:1028100005352B43FA4DA84202D0FA4DA84208D103
:102820004BF6FF752C408D894FF6FF7606EA85152D
:102830002C4384808283CD88A0F84050038470BDEF
:10284000828B4FF2FF331A408283828B4FF6FF73E5
:1028500003EA01231A4382837047F0B50C461546FC
:10286000002200210026078C4EF6FF7C07EA0C07A9
:102870000784828B018C4FF6FF7707EA043640F617
:10288000FF473A404FF6FF7707EA05273A434FF6EE
:10289000FF7707EA03373A43D94FB8420ED0D94FF2
:1028A000B8420BD0B0F1804F08D0D74FB84205D016
:1028B000D64FB84202D0D64FB84206D14DF6FF7778
:1028C000394046F48057394305E047F6FF57394011
:1028D00044F48057394382830184F0BD828B4FF6E4
:1028E000F3731A408283828B0A4382837047F0B568
:1028F0000C461546002200210026078C4FF6FF6C7F
:1029000007EA0C070784828B018C4FF6FF7707EAF2
:1029100004264FF60C773A404FF6FF7707EA031785
:102920002F433A43B64FB8420ED0B64FB8420BD001
:10293000B0F1804F08D0B44FB84205D0B34FB84281
:1029400002D0B34FB84206D14FF6FF57394046F494
:102950008077394305E04FF2FF57394044F48077E0
:10296000394382830184F0BD028B4FF2FF331A405A
:102970000283028B4FF6FF7303EA01231A4302839B
:102980007047F0B50C461546002200210026078C42
:102990004FF6EF7C07EA0C070784028B018C4FF699
:1029A000FF7707EA041640F6FF473A404FF6FF77F5
:1029B00007EA03373A434FF6FF7707EA05273A431A
:1029C0008F4FB8420ED08F4FB8420BD0B0F1804F2E
:1029D00008D08D4FB84205D08C4FB84202D08C4FF2
:1029E000B84206D14FF6DF77394046F01007394339
:1029F00005E04FF65F77394044F010073943028312
:102A00000184F0BD028B4FF6F3731A400283028BF0
:102A10000A4302837047F0B50C4615460022002198
:102A2000068C4FF6FE773E400684028B018C4FF6F3
:102A30000C7632407E1C06EA03162E433243704E5B
:102A4000B0420ED06F4EB0420BD0B0F1804F08D0E4
:102A50006D4EB04205D06D4EB04202D06C4EB042C9
:102A600006D14FF6FD76314044F00106314305E0D2
:102A70004FF6F576314044F001063143028301847C
:102A8000F0BD70B505460C465D4885420ED05D48E8
:102A900085420BD0B5F1804F08D05B48854205D008
:102AA0005A48854202D05A48854200D100E000BF12
:102AB000208850B92389A28861882846FFF7ABFF98
:102AC000E1882846FFF79EFF25E0208804280AD1E8
:102AD0002389A28861882846FFF753FFE1882846AA
:102AE000FFF742FF17E0208808280AD12389A2882F
:102AF00061882846FFF7FBFEE1882846FFF7EEFED7
:102B000009E02389A28861882846FFF7A6FEE188AC
:102B10002846FFF795FE70BD2DE9F04105460C46AD
:102B200000260127608808B9022600E00026A08858
:102B3000012801D1022700E001272088A0B92389BC
:102B4000A28861882846FFF766FFE1882846FFF7DC
:102B500059FF23893A4631462846FFF712FFE1889C
:102B60002846FFF701FF13E02389A28861882846E1
:102B7000FFF707FFE1882846FFF7F6FE23893A466C
:102B800031462846FFF747FFE1882846FFF73AFF1E
:102B9000BDE8F0810A884B881A438B881A43CB889A
:102BA0001A430B891A434B891A438B891A43A0F89D
:102BB000442070474FF6FF71818000210180C18061
:102BC0004180017270470021018041808180C18075
:102BD000018141818181C181704700210180418053
:102BE000012181800021C180018170470021018085
:102BF00041808180C18001814181818170470000D5
:102C0000002C014000340140000400400008004056
:102C1000000C004021B1028842F00102028004E071
:102C200002884FF6FE731A400280704731B1B0F847
:102C3000442042F40042A0F8442005E0B0F84420CB
:102C4000C2F30E02A0F8442070471AB183890B43E7
:102C5000838102E083898B4383817047818270473F
:102C600041EA0203A0F8483070471AB183890B4348
:102C7000838102E083898B438381704701894FF60A
:102C8000F8721140018170470A46002101894FF610
:102C90008F73194011430181704730B504460D46CA
:102CA00029462046FFF7F0FF208940F007002081E9
:102CB00030BD2DE9F04104460D4616461F46602DF5
:102CC00006D13B46012231462046FFF75AFE05E079
:102CD0003B46012231462046FFF79DFE294620460D
:102CE000FFF7D2FF208940F007002081BDE8F08186
:102CF00030B50C4600210189C9B24FF6FF7505EACF
:102D00000325154325432943018130BD2DE9F041B9
:102D100005460E4617469846002443463A46314635
:102D20002846FFF7E5FF2C894FF6F870044044F081
:102D300007044FF68F70044044F070042C81BDE806
:102D4000F081F0B504460D4616461F463B46324616
:102D500029462046FFF7CCFF208940F4804020819F
:102D6000F0BD0185828270470A46002101884FF636
:102D70008F731940114301807047F0B50C4615461A
:102D80001E460021002200230189028B038C4FF68E
:102D9000F877394021434FF6FC473A4040F201179B
:102DA0003A434FF6DD773B404FF6FF7707EA0617C9
:102DB0002F433B43018102830384F0BD0A46002177
:102DC000018B4FF68F7319401143018370470A46F8
:102DD0000021018B48F6FF7319404FF6FF7303EA99
:102DE00002231943018370470A460021818B4FF665
:102DF0008F7319401143818370470A460021818BEC
:102E000048F6FF7319404FF6FF7303EA0223194394
:102E10008183704721B1028842F08002028004E081
:102E200002884FF67F731A400280704721B1828872
:102E300042F00402828004E082884FF6FB731A405D
:102E40008280704721B1828842F00802828004E0CB
:102E500082884FF6F7731A408280704721B18288CA
:102E600042F00102828004E082884FF6FE731A402D
:102E7000828070470A460021018B4FF6F773194094
:102E80001143018370470A460021018B4FF2FF7303
:102E900019404FF6FF7303EA022319430183704779
:102EA0000A460021818B4FF6F77319401143818345
:102EB00070470A460021818B4FF2FF7319404FF68D
:102EC000FF7303EA02231943818370470A460021F6
:102ED000018B4FF6FB7319401143018370470A467B
:102EE0000021018B4FF6FF3319404FF6FF7303EAC1
:102EF00002231943018370470A460021818B4FF654
:102F0000FB7319401143818370470A460021818B6E
:102F10004FF6FF3319404FF6FF7303EA02231943BC
:102F2000818370470A460021018B4FF67F73194059
:102F30001143018370470A460021018BC1F30E0142
:102F40004FF6FF7303EA02231943018370470A46D1
:102F50000021818B4FF67F731940114381837047A5
:102F60000A460021818BC1F30E014FF6FF7303EA7D
:102F700002231943818370470A460021018C4FF6D2
:102F8000FD7319401143018470470A460021018CEA
:102F90004FF6F77319401143018470470A46002128
:102FA000018C4FF6DF7319404FF6FF7303EA0213EB
:102FB0001943018470470A460021018C4FF67F7344
:102FC00019404FF6FF7303EA021319430184704757
:102FD0000A460021018C4FF6FF5319404FF6FF734C
:102FE00003EA02231943018470470A460021018C39
:102FF0004FF2FF7319404FF6FF7303EA02231943A0
:10300000018470470A460021018C4DF6FF73194078
:103010004FF6FF7303EA023319430184704730B55A
:10302000002301248C40A3B2048C9C430484048CB0
:1030300002FA01F5ADB22C43048430BD30B5002353
:1030400004248C40A3B2048C9C430484048C02FAB4
:1030500001F5ADB22C43048430BD70B503460020A9
:1030600000241846183001258D40ACB21D8CA543B4
:103070001D8409B1082909D100EB6100056825F01C
:10308000700505600568154305600EE00D1FC5F36A
:103090004E052844056825F4E045056005684FF6AF
:1030A000FF7606EA02263543056070BD21B102882D
:1030B00042F00202028004E002884FF6FD731A40DB
:1030C0000280704721B1028842F00402028004E0CD
:1030D00002884FF6FB731A400280704721B1828844
:1030E00042F08002828004E082884FF67F731A40AB
:1030F0008280704702884FF6F7731A400280028878
:103100000A430280704782884FF68F731A4082808C
:1031100082880A438280704702894FF6F8731A400A
:10312000028102890A430281704702894FF67F7348
:103130001A40028102890A430281704781847047E4
:103140008185704781867047018770478187704706
:10315000A0F84010704702884FF6FF431A400280E3
:1031600002880A43028070470146888E70470146F4
:10317000088F70470146888F70470146B1F84000BC
:1031800070470146888C70470146088D704702469B
:103190000020138A0B400BB1012000E00020704793
:1031A000CA430282704730B5024600200023002443
:1031B000158A05EA0103958905EA010413B10CB1EA
:1031C000012000E0002030BDCA43028270470000A9
:1031D00010B50446FB48844209D101218803FFF75A
:1031E0009FF800214FF48040FFF79AF832E0F6484C
:1031F000844209D101214804FFF79FF800214FF4D0
:103200000030FFF79AF825E0F048844209D1012107
:103210008804FFF792F800214FF48020FFF78DF823
:1032200018E0EB48844209D10121C804FFF785F872
:1032300000214FF40020FFF780F80BE0E5488442BE
:1032400008D101210805FFF778F800214FF480101C
:10325000FFF773F810BD2DE9F04786B005460E461E
:103260000024A24600BFA1460027B08900B100BFDC
:103270002F462C8A4CF6FF700440F08804432C82C1
:10328000AC894EF6F3100440B08831890843718947
:1032900008430443AC81AC8A4FF6FF400440B08938
:1032A0000443AC8201A8FEF7B4FFC648874202D1AE
:1032B000DDF810A001E0DDF80CA0A88900F40040C2
:1032C00040B10AEBCA0000EB0A1031684900B0FBBC
:1032D000F1F807E00AEBCA0000EB0A103168890038
:1032E000B0FBF1F86420B8FBF0F004012009642180
:1032F00001FB1089A88900F4004040B1322000EBA6
:10330000C900B0FBF1F000F00700044308E03220F0
:1033100000EB09106421B0FBF1F000F00F00044352
:103320002C8106B0BDE8F0874FF4165101600021F2
:103330008180C18001810C21418100218181704700
:1033400010B502460020108A4FF2FF0318400B8888
:103350004C8823438C882343CC8823431843108212
:1033600010BD0021018041808180C180704721B162
:10337000828942F40052828104E082894DF6FF7313
:103380001A4082817047F0B50346002400260025CC
:10339000002040F66A17B94200D100BF1846C1F3B9
:1033A000421401F01F06012707FA06F5012C01D18E
:1033B0000C3004E0022C01D1103000E014301AB1BE
:1033C00007682F43076002E00768AF430760F0BD5E
:1033D0001AB1838A0B43838202E0838A8B43838200
:1033E0007047028A4FF6F0731A400282028A0A433B
:1033F0000282704782894FF2FF731A40828182896C
:103400000A438281704721B1828942F0020282819F
:1034100004E082894FF6FD731A4082817047028A68
:103420004FF6DF731A400282028A0A430282704713
:1034300021B1028A42F48042028204E0028A4BF601
:10344000FF731A4002827047C1F3080282807047FE
:1034500001468888C0F308007047818941F0010166
:1034600081817047028BD2B20283028B42EA012231
:1034700002837047028B02F47F420283028B0A436D
:103480000283704721B1828A42F02002828204E0E6
:10349000828A4FF6DF731A408282704721B1828A96
:1034A00042F01002828204E0828A4FF6EF731A40E3
:1034B0008282704721B1828A42F00802828204E04F
:1034C000828A4FF6F7731A408282704721B182894F
:1034D00042F40042828103E08289C2F30E028281BB
:1034E000704721B1828A42F40062828204E0828ABB
:1034F0004FF2FF731A4082827047828A4FF6FB7345
:103500001A408282828A0A438282704721B1828A6B
:1035100042F00202828204E0828A4FF6FD731A4072
:103520008282704702460020B1F5007F00D100BFC3
:1035300013880B400BB1012000E00020704701F41C
:103540000072B2F5007F00D100BFCA43028070470D
:1035500070B50246002400230025002040F66A16BC
:10356000B14200D100BFC1F3421501F01F03012693
:1035700006FA03F3012D02D19689334006E0022DAD
:1035800002D1168A334001E0968A33400C1201269C
:1035900006FA04F41688344013B10CB1012000E09F
:1035A000002070BD10B50022002340F66A14A1422D
:1035B00000D100BF0A1201249440A3B2DC4304806E
:1035C00010BD0000003801400044004000480040A9
:1035D000004C0040005000400CB5002001900090CD
:1035E0006C48006840F480306A49086000BF694850
:1035F000006800F4003000900198401C0190009891
:1036000018B90198B0F5A06FF1D16248006800F4D4
:10361000003010B10120009001E0002000900098DF
:10362000012843D15C48006840F010005A49086006
:103630000846006820F0030008600846006840F073
:103640000200086053484068524948600846406894
:1036500048600846406840F480604860084640681A
:1036600020F47C1048600846406840F4E810486048
:103670000846006840F08070086000BF4548006858
:1036800000F000700028F9D04248406820F00300A4
:10369000404948600846406840F00200486000BF6A
:1036A0003C48406800F00C000828F9D10CBD10B56A
:1036B000FFF792FF10BD10B53648006840F00100DA
:1036C0003449086008464068344908403149486038
:1036D00008460068324908402E49086008460068DC
:1036E00020F4802008600846406820F4FE0048600E
:1036F0004FF41F008860FFF7DAFF4FF000602949A0
:10370000086010BD10B5002100200022214B5B682D
:1037100003F00C0121B1042906D0082928D107E0C3
:10372000214B224C236027E01F4B204C236023E0D9
:10373000184B5B6803F47010164B5B6803F480321F
:10374000022303EB904022B9194B4343174C2360EB
:103750000DE0104B5B6803F4003323B1144B43437B
:10376000124C236003E0104B4343104C236003E0F2
:103770000D4B0E4C236000BF00BF064B5B68C3F3CC
:1037800003130C4CE15C094B1B68CB40074C2360D6
:1037900010BD000000100240002002400000FFF8B1
:1037A000FFFFF6FE08ED00E000127A00240D002075
:1037B00000093D00280D00202DE9F05F054600209E
:1037C00092469B4688460646814640241BE0284692
:1037D00041464746224600F042F853465A46C01A30
:1037E000914110D311461846224600F029F82D1AAF
:1037F00067EB01084F4622460120002100F020F827
:1038000017EB00094E41201EA4F10104DFDC4846FD
:1038100031462A464346BDE8F09F0000064C074D5E
:1038200006E0E06840F0010394E807009847103490
:10383000AC42F6D3FCF780FC783D0008983D0008C8
:10384000202A04DB203A00FA02F100207047914060
:10385000C2F1200320FA03F3194390407047202A55
:1038600004DB203A21FA02F00021704721FA02F32A
:10387000D040C2F12002914008431946704770B50C
:103880008C1810F8015B15F0070301D110F8013B0B
:103890002A1106D110F8012B03E010F8016B01F892
:1038A000016B5B1EF9D12B0705D40023521E0DD4EA
:1038B00001F8013BFAE710F8013BCB1A921C03E038
:1038C00013F8015B01F8015B521EF9D5A142D8D370
:1038D000002070BD0FB4054B10B503A9044A02982F
:1038E00000F018F810BC5DF814FB0000BF0F0008D2
:1038F000380D002002E008C8121F08C1002AFAD1C2
:1039000070477047002001E001C1121F002AFBD15F
:10391000704700002DE9FF4F8DB00F460546002689
:1039200006E025280BD0DDE90F1290476D1C761CB0
:1039300028780028F5D111B03046BDE8F08F00247A
:10394000A246A1460122EC4900E0044315F8013FDC
:10395000203B02FA03F00842F7D128782A2810D039
:103960006FF02F022878A0F13001092914D80AEB52
:103970008A0102EB410144F0020400EB010A6D1CD4
:10398000F0E701CF5FEA000A03D544F40054CAF11E
:10399000000A44F002046D1C28782E2817D115F86F
:1039A000010F44F004042A280ED06FF02F0228786B
:1039B000A0F1300109290AD809EB890102EB410184
:1039C00000EB01096D1CF2E757F8049B6D1C287889
:1039D0006C280FD006DC4C2817D068280DD06A2838
:1039E00014D104E0742810D07A280FD10DE044F4EB
:1039F00000140AE044F4801401E044F440146978AF
:103A0000814202D104F580146D1C6D1C2A786E2A47
:103A10001FD00CDC632A31D004DC002A8BD0582A5A
:103A200011D1A3E0642A68D0692A0CD165E0732A19
:103A30002ED004DC6F2A73D0702A04D19BE0752A43
:103A40006FD0782A6ED01046DDE90F129047761CB1
:103A500050E1C4F30250022806D0032809D00428FC
:103A600001CF09D0066045E101CFF117C0E900613F
:103A700040E101CF06803DE106703BE117F8040B01
:103A80008DF8000000208DF80100EB46012003E0D6
:103A900057F804BB4FF0FF3061074FF0000102D42C
:103AA0000DE008F10101884649450FDA8045F8DB51
:103AB0001BF808100029F4D108E008F1010188463C
:103AC0008142FADB1BF808100029F6D1DDE90F234B
:103AD000AAEB08008146214600F036F9304400EB9D
:103AE000080604E0DDE90F121BF8010B9047B8F15E
:103AF0000108F7D221464846F7E00A21C4F30253F1
:103B00004FF0000B0891022B04D001CFC117032BFB
:103B100009D00AE0FF1D27F00707F7E8020108E0D7
:103B200032E01FE020E000B2C117042B01D140B207
:103B3000C117031E71F1000307DA4FF0000CD0EB40
:103B40000C006CEB01012D2302E0230504D52B238F
:103B50008DF82430012303E0E30701D02023F7E7A9
:103B6000984658E00A2110E010210EE010204FF096
:103B7000000B08900CE010214FF0000B44F00404FF
:103B80004FF00809089103E008214FF0000B08915D
:103B9000C4F30253022B04D001CF0021032B06D023
:103BA00006E0FF1D27F00707F7E8020103E080B2F7
:103BB000042B00D1C0B24FF0000823072BD5702A88
:103BC00007D0DDF820C08CF0100C5CEA0B0C05D09F
:103BD0000EE040238DF82430012308E050EA010371
:103BE00006D030238DF824308DF825200223984606
:103BF000DDF820C08CF0080C5CEA0B0C0BD150EA0D
:103C0000010301D1630706D530238DF824304FF02E
:103C10000108A9F10109582A04D038A20B9208AA78
:103C20000A920BE03AA2F9E75B46089AFFF7C4FD57
:103C30000B9B9B5C0A9A521E0A92137050EA010277
:103C4000F2D10A98ADEB000000F1200B600702D51D
:103C500024F4803401E04FF00109D94502DDA9EBDD
:103C60000B0000E0002000EB0B0141440890AAEBA0
:103C7000010AE00306D4DDE90F232146504600F097
:103C800063F806444FF0000908E009A911F809009B
:103C9000DDE90F12904709F10109761CC145F4DBFB
:103CA000E0030CD5DDE90F232146504600F04CF827
:103CB000064404E0DDE90F1230209047761C089995
:103CC000481E08900029F5DC08E00A980A99007857
:103CD000491C0A91DDE90F129047761CBBF10001E7
:103CE000ABF1010BF1DC21465046DDE90F2300F07A
:103CF00019F806446D1C1BE60928010030313233E7
:103D00003435363738396162636465660000000017
:103D10003031323334353637383941424344454601
:103D2000000000002DE9F041044600251E4617461C
:103D3000880404D405E039462020B0476D1C641E79
:103D4000F9D52846BDE8F0812DE9F041044600256B
:103D50001E469046C80301D5302700E0202788047E
:103D600004D505E041463846B0476D1C641EF9D5C0
:103D70002846BDE8F0810000983D000800000020C2
:103D80003C0D00007E380008D04700083C0D0020A4
:103D90007C08000004390008F2FF18334260E5D0C7
:103DA00022DB19409CC420B072681C40D9CEF75366
:103DB000E3E5204037894160E550244025068195A0
:103DC000438B274096438B6CE7FB2940A69B293801
:103DD00015322B40E7FBA9F1D20D2B403D0AD7A3AA
:103DE00070FD294071094A2838280C902640508DD2
:103DF000976E128324400F4CD062223058234D20FE
:103E0000401904560E2DB21C402FDD2406811519D1
:103E100040F853E3A59BC41540022B8716D9CE1258
:103E200078581210402DB29DEFA7C60C403108AC57
:103E30001C5A640A10281D0940F2D24D6210580B1A
:103E400040FA7E6ABC74930F40EC51B81E856B1328
:103E500040CDCC01181518405EBA490C022B204009
:103E6000CBA145B6F33D2540A470991815E32B402E
:103E700075931804562E324023DBF97E6A5C374076
:103E80009E4E180F4B573D4039B4C876BEDF4140B7
:103E9000C74B7A11480A45403BDF4F8D97BE4740DC
:103EA0002815DD4940B0726891ED3C4B4017D9CEE2
:103EB000F753D34B4066014BA64B301814C04A4011
:103EC000FED478E926314940C976BE9F1A0F474093
:103ED000952E1804764440672DBC844140772E0E01
:103EE000CD3C401BF11DA13640A257380DFDF430EA
:103EF00040AE47E17A146E2840DF4B7B21181ED478
:103F00001A40C5207226111840BA291AB3041AADF6
:103F1000041AA9045AA8081AAC041AB2041ABB0459
:103F20001AC7041AD7041AE9041AFF0423192A1A13
:103F300037041A58041A7E041AA7041AD504230752
:103F40002B1A3E041A79041AB8041AFC0423452CCF
:103F50001A93041AE504233C2D1A98041AF9042331
:103F60005E2E1AC8041B362F7019042321301A9DA7
:103F700004231D311AA204232B321AB70423483319
:103F80001ADC042374341B0F35A81904234E361A87
:103F9000F2042399372341381AED041B99392C2256
:103FA0003A1AF80423A93B235B3C230E3D1AC104B3
:103FB00023743E23273F1AD9041B8B408822411AC1
:103FC000EB042399422344431AEE04239544233AF5
:103FD000451ADB042379462313471AAA04233C48D5
:103FE0001ACA042354491AD80423584A1AD204235B
:103FF000464B1AB504231E4C1A80041ADC042332E3
:104000004D1A81041AC9041B0A4E5C19041A76045D
:104010001AA1041AC5041AE1041AF60423034F1A5C
:1040200008041A05041AFB101AE9041ACF041AAD81
:10403000041A84041A53041A1B041ADB481A930442
:104040001A45041AEF601A92041A2F041AC4781A37
:1040500053041ADC881A5F041ADB981A52041AC334
:10406000A81A2F041A96B81AF7C41A55041AAED013
:104070001A03041A54E01AA2E81AECF41A340423BE
:10408000784123BB401BFC3FF8190423783E23B43E
:104090003D23F03C1A2B041B663BB81A3A642239C4
:1040A0001A180423553823943723D4361A160423B8
:1040B0005A351BA034BC22331A360423853223D848
:1040C000311A2E0423893023E72F1A4A0423B12EF4
:1040D0001A1D04238E2D1A0404337F2C1904238601
:1040E0002B1A110423A22A1A390423D6291A790477
:1040F0001A22041BD0285019041A40041119041B59
:10410000C7277C19041A67041A40041A1E041A03EC
:10411000041BED26A019041AD2045ACC041AD104A7
:104120001ADB041AEA041AFE041A16281A32041AB0
:1041300053041A77041A9F041ACB041AFA041A2C8F
:104140005C1A61041A99041AD3041A0F7C1A4D04DC
:104150001A8D041ACF041A12981A55041A9A041ABE
:10416000DF041A25B01A6A041AB0041AF5041A3AC0
:10417000C81A7D041AC0041A02DC1A42041A810407
:104180001ABE041AF9041A32F81A69041A9D041A9C
:10419000CF041AFE04232B2F1A54041A7B041A9EF0
:1041A000041ABE041ADB041AF5041B0B30DC1904D4
:1041B0001A2D041A39041A42041A47041A48041A18
:1041C00046041A41041A38041A2C041A1C041A0A48
:1041D000041AF4381ADC041AC0041AA1041A800460
:1041E0001A5C041A36041A0E041AE3741AB6041A76
:1041F00087041A57041A25041AF29C1ABD041A8758
:10420000041A51041A1A041AE2C41AAA041A7104EC
:104210001A39041A01041AC9E41A92041A5B041A1E
:1042200026041BF12AB019041A8C041A5C041A2DF6
:104230000411190423D5291AAD041A86041A62043C
:104240001A40041A21041A040423EB281AD4041A6D
:10425000C0041AAF041AA1041A96041A8E041A890B
:10426000045A87081A8D041A95041AA0041AAE0479
:104270001ABF041AD2041AE9041A03481A1F041AAE
:104280003E041A5F041A83041AA9041AD1041AFC02
:10429000041A28841A57041A86041AB8041AEB045C
:1042A0001A1FB01A53041A89041AC0041AF7041A00
:1042B0002ED41A66041A9D041AD4041A0BF81A4252
:1042C000041A77041AAC041AE00423122E1A4304C9
:1042D0001A73041AA0041ACC041AF6041B1E2F1811
:1042E00019041A66041A86041AA4041ABF041AD7F9
:1042F000041AEC041AFF04230E301A1A041A2304B9
:104300001A28041A2B041A2A041A26041A1E041A3C
:1043100013041A06041AF42C1AE0041AC9041AAF7A
:10432000041A91041A71041A4E041A29041A010479
:104330001AD6741AAA041A7B041A4A041A17041A01
:10434000E3A01AAD041A76041A3D041A04041ACA2A
:10435000C81A8F041A54041A19041ADEE81AA3049E
:104360001A69041A2F0423F62A1ABE041A87041A9B
:1043700052041A1E0423EC291ABC041A8E041A6271
:10438000041A39041A120423EF281ACE041AB004AE
:104390001A95041A7E041A6A041A59041A4B041A4C
:1043A00042041A3C041A39041A3A041A3F041A4700
:1043B000041A53041A63041A76041A8C041AA60405
:1043C0001AC3041AE3041A06581A2C041A55041ABC
:1043D00080041AAE041ADE041A10881A43041A78EC
:1043E000041AAE041AE5041A1DB01A55041A8E04F4
:1043F0001AC6041AFE041A35D41A6B041A9F041A3A
:10440000D2041A03F41A31041A5D041A86041AAB92
:10441000041ACD041AEA0423032E1A18041A2704D6
:104420001A31041A36041A35041A2D041A20041AF3
:104430000B041AF0281ACE041AA4041A73041A3AA8
:10444000041AFA581AB2041A61041A09041AA8784C
:104450001A3F041ACE941A55041AD4B01A4B041AEF
:10446000B9D01A200423802723D8261A28042372BF
:104470002523B5241BF123781904235822238321F3
:1044800023A92023CB1F1BE91E981904231B1D1BE6
:10449000301CF41A1B54221A236719237918238C11
:1044A0001723A11623B71523D11423EF131A1204CF
:1044B000233A121B6911F8221023DD0F1A24041B62
:1044C000760E24220D1A39041BAE0C50190423C099
:1044D0000B1A60041A100423D20A1AA6041A8D04B7
:1044E0001A87041A97041ABD041AF9041A4C201AE0
:1044F000B8041A3D341ADC041A95441A6A501A5A40
:10450000581A68641A926C1ADB741A42841AC88C9E
:104510001A6D981A32A41A18B01A1EBC1A45CC1A71
:104520008DD81AF7E41A82F8232F291BFE2BB0220C
:104530002E230132233535338A38223C23983F23FA
:1045400050432329471B214BB0224F236F5323C4D1
:104550005723365C23C56023706523376A23176FA2
:104560001B1174E02279234E7E238E8323E488235B
:104570004D8E23CA9323589923F69E23A3A4235D2B
:10458000AA2323B023F4B523CFBB1BB0C16C22C731
:104590002384CD2373D32363D92352DF1B40E57CCF
:1045A00022EB230DF123EAF623BEFC14880201144A
:1045B00045080114F40D0114941301142219011477
:1045C0009D1E011403240114532901148B2E011480
:1045D000A9330114AC380114933D011B5B421C1339
:1045E0004701148A4B0114EF4F01142F5401144A50
:1045F0005801143F5C01140B600114AF63011428CF
:10460000670114766A011B976D4013700114517392
:104610000114E87501144F78011B857A3C137C0165
:10462000145C7E0114FD7F01146A810114A48201CF
:1046300014AA8301147D84011B1B852419041ABA52
:10464000041ABB041A88041A21041A861C1AB724F7
:104650001AB52C1A81341B1A800819441AB74C1A3F
:10466000BD541A935C143B76011AB46C1B0171346F
:10467000136E0114176B011AE38C1B86641413610B
:104680000114565D011B8759E8135501147E510131
:1046900014484D0114F248011B7F44CC133F011410
:1046A000443B011480360114A5310114B32C011BC5
:1046B000AD272C13220114691D011B3018C41A12D6
:1046C00010130D011435080114CE0201235FFD23E0
:1046D000EBF72373F223F8EC237CE72301E2238931
:1046E000DC2314D723A5D1233CCC23DCC62385C1EE
:1046F0002339BC23FAB623C8B123A6AC2393A7233E
:1047000091A223A29D33C7982294234E8F23B38A6C
:10471000232F8623C38123707D23367923177523A6
:104720001371232A6D235C691BAB6514226223A0DD
:104730005E23465B23095823EA5423E95123064F9D
:1047400023404C2399491B0F4760224423534223A3
:1047500021401B0C3E9C223C23373A23773823D13F
:104760003623473523D7332381322344311B1F306F
:104770006C222F231D2E233F2D1B762C8C222B1ACF
:10478000230423982A1A200423B9291A64041A201E
:104790000423EB281AC5041AAD041AA2041AA404AF
:1047A0001AB2041ACA041AED041A18241A4C041A6C
:1047B00088041ABA04E301022D010203040410095B
:1047C0000607080902040608ACA24A041C2918417D
:0400000508000131BD
:00000001FF
